:020000040800F2
:1000000000040020B9010008BB010008BB01000882
:10001000BB010008BB010008BB010008BB010008D0
:10002000BB010008BB010008BB01000845BA00087D
:10003000BB010008BB010008BB0100083DCC000863
:10004000BB010008BB010008BB010008BB010008A0
:10005000BB010008BB010008BD300008FD300008EE
:100060003D31000881310008C5310008BB0100089E
:10007000BB010008BB01000879D2000895D4000834
:1000800009320008BB010008BB010008BB010008E1
:10009000BB010008BB010008BB010008BB01000850
:1000A000BB010008BB0100082DCE0008BB01000801
:1000B000BB010008BB0100085DCC0008BB010008C3
:1000C000BB010008A9320008BB01000899D4000850
:1000D000BB010008BB010008BB010008BB01000810
:1000E00072B6264880F30888254880F30988254899
:1000F00025490860022080F31488BFF36F8F0BF04E
:1001000019FA0AF0F3FF4FF0553020491B4A91428B
:100110003CBF41F8040BFAE71D49194A91423CBF24
:1001200041F8040BFAE71B491B4A1C4B9A423EBF9D
:1001300051F8040B42F8040BF8E700201849194A5B
:1001400091423CBF41F8040BFAE70BF0F7F90BF0D2
:10015000F2F9154C154DAC4203DA54F8041B8847EC
:10016000F9E706F09FF9124C124DAC4203DA54F84D
:10017000041B8847F9E70BF0DFB9000000040020FA
:10018000000C00200000000808ED00E00000002046
:1001900000040020D8F10008000C002068110020A5
:1001A00068110020D42F0020E0000008E0000008C3
:1001B000E0000008E000000892E700F000F8FEE729
:1001C0002DE9F04FC1F80CD0C3689D46BDE8F08F13
:1001D000002383F311882846A04700200BF0B2FBD0
:1001E000FEE70BF0E5FA00DFFEE7000053B94AB97D
:1001F000002908BF00281CBF4FF0FF314FF0FF302F
:1002000000F074B9ADF1080C6DE904CE00F006F809
:10021000DDF804E0DDE9022304B070472DE9F04782
:100220008C460446089E002B40F086808A42154684
:1002300048D9B2FA82F24AB1C2F1200701FA02F3B8
:1002400020FA07F7954047EA030C94404FEA154E11
:10025000BCFBFEF71FFA85F80EFB17C307FB08F976
:10026000210C41EA0343994509D9EB1807F1FF3105
:1002700080F0E180994540F2DE80023F2B44A3EB01
:100280000903B3FBFEF00EFB103300FB08F1A4B230
:1002900044EA0344A14209D92C1900F1FF3380F04C
:1002A000C880A14240F2C58002382C4440EA074091
:1002B0000027641A1EB10023D440C6E90043394622
:1002C000BDE8F087002A54D0B2FA82F2002A40F04A
:1002D000B4800127491B4FEA15481FFA85F9B1FB85
:1002E000F8FE08FB1E1109FB0EF04FEA144C4CEA15
:1002F0000143984207D9EB180EF1FF3102D2984220
:1003000000F2EB808E461B1AB3FBF8F008FB1033AB
:1003100009FB00F9A4B244EA0344A14507D92C190A
:1003200000F1FF3302D2A14500F2DB801846A4EBB6
:10033000090440EA0E40BDE78B4208D9002E75D073
:100340000027C6E9000138463946BDE8F087B3FA10
:1003500083F77FB98B4202D3824200F2BC80841AB9
:1003600061EB030301209C46002EA8D0C6E9004C97
:10037000A5E7FFDEC7F12005BB4022FA05FC4CEAE9
:10038000030C21FA05F44FEA1C4EB4FBFEF91FFAE8
:100390008CF80EFB194420FA05F3B94009FB08FA62
:1003A00019430B0C43EA0444A24502FA07F200FA8F
:1003B00007F30BD91CEB040409F1FF3080F08980AE
:1003C000A24540F28680A9F102096444A4EB0A0424
:1003D000B4FBFEF00EFB104400FB08FA89B241EAC0
:1003E0000444A24508D91CEB040400F1FF316CD28F
:1003F000A2456AD90238644440EA0940A0FB028958
:10040000A4EB0A044C454146CE4655D352D0002EAB
:100410006AD05A1A64EB0E0404FA05F522FA07F3BF
:10042000FC401D43C6E90054002748E737463046E4
:1004300045E718463AE70F4621E79540C2F1200309
:1004400021FA03F04FEA1548B0FBF8F71FFA85F9D7
:1004500008FB170E24FA03FC914007FB09FA4CEA4B
:100460000101080C40EA0E40824504FA02F407D963
:10047000281807F1FF332AD2824528D9023F2844A1
:10048000A0EB0A00B0FBF8FC08FB1C000CFB09F316
:1004900089B241EA00418B4208D969180CF1FF305A
:1004A00011D28B420FD9ACF1020C2944C91A4CEA83
:1004B000074714E74345AAD2B8EB020169EB0C02E7
:1004C00001389646A3E78446F0E7084694E71F46BE
:1004D000D6E781467AE7384646E7AEF1020E2B446E
:1004E00011E702382C4422E73746E8E6704700BFA0
:1004F00008B5062000F040FA01200CF0E7F900BF33
:10050000830770B4CDB23DD0541E0AB30378AB421A
:100510001FD0431C05E014F1FF3419D30278AA421E
:1005200017D013F0030F184603F10103F3D1032C86
:1005300011D84CB30378AB420BD00444431C02E007
:100540000278AA4205D09C42184603F10103F7D174
:10055000002070BC704702460E02B6B22E4346EA37
:100560000646136810467340A3F1013121EA0303E4
:1005700013F0803F02F10402DCD1043C032C10464E
:10058000EFD8D6E71446D2E72046E2E7032A70B454
:1005900012D940EA0105AD0704460B4620D11946A1
:1005A000204653F8045B54F8046BAE4218D1043A69
:1005B000032A20461946F2D8541E72B103780A78ED
:1005C0009A4208BF241806D00CE010F8013F11F839
:1005D000012F934206D1A042F7D1002070BC704792
:1005E000541EEBE7981A70BC704700BF844641EA7E
:1005F000000313F0030349D1403A23D30B6803608F
:100600004B6843608B688360CB68C3600B69036190
:100610004B6943618B698361CB69C3610B6A036278
:100620004B6A43628B6A8362CB6AC3620B6B036360
:100630004B6B43638B6B8363CB6BC3634030403145
:10064000403ADBD230320BD30B6803604B68436017
:100650008B688360CB68C36010301031103AF3D2DE
:100660000C3205D351F8043B40F8043B043AF9D26C
:10067000043208D0D2071CBF11F8013B00F8013B3F
:1006800001D30B8803806046704700BF082A13D34C
:100690008B07B1D010F00303AED0C3F10403D21A1C
:1006A000DB071CBF11F8013B00F8013BA4D331F874
:1006B000023B20F8023B9FE7043AD9D3013A11F8F4
:1006C000013B00F8013BF9D20B7803704B78437083
:1006D0008B78837060467047F0B4860746D0541E0E
:1006E000002A3CD0CAB2034602E014F1FF3436D3EC
:1006F00003F8012B9D07F8D1032C29D9CDB245EA87
:1007000005250F2C45EA054533D9A4F11006360915
:1007100003F1200707EB061703F1100242E9045525
:1007200042E902551032BA42F8D1721C14F00C0F93
:1007300003EB021204F00F0613D0331F23F0030360
:100740000433134442F8045B9342FBD106F00304E4
:100750002CB1C9B21C4403F8011B9C42FBD1F0BC74
:10076000704734461346002CF3D1F8E7144603468D
:10077000C2E71A462646E0E738B5124B05461C6824
:10078000A06B18B10023C0E9045338BD182000F055
:10079000A1F9A06378B101220023C0E904230A4B28
:1007A0000B24836000230949094A8481C0E90012AF
:1007B000C0E9045338BD0246064B4221064800F00A
:1007C00041F900BF000C0020ECDE05000E33CDAB7C
:1007D00034126DE608F1000820F1000838B51A4B14
:1007E0001C68A26B92B114691849536901FB04F1AA
:1007F000174800FB0313A4FB0045611C1D4445F191
:10080000000323F00040C2E9041338BD182000F0B3
:1008100061F90246A06388B1012400250B21C0E9DB
:1008200004450C4B0948136003460B4D0B4C91815A
:100830000B49C2E90154C2E9041338BD094B4E21EA
:10084000094800F0FFF800BF000C00202DF45158BB
:100850002D7F954C0E33CDAB34126DE6ECDE0500EA
:100860002E7F954C08F1000820F1000810B580217A
:10087000044600F093F9606440B10022031F7C300D
:1008800043F8042F8342FBD1002010BD4FF0FF300E
:1008900010BD00BF436C0BB100207047E6E700BFFE
:1008A0001F2970B5054608D8436C16460C464BB157
:1008B00053F8240043F8246070BD16224FF0FF3037
:1008C0002A6070BDFFF7D2FF08B96B6CF0E74FF0FC
:1008D000FF3070BD1F2938B5054620D8426C0C4644
:1008E0006AB152F8213053B1012B16D0591C10D0E7
:1008F0000025204642F824509847284638BD28460F
:1009000000F070F8224601462846BDE8384000F065
:1009100055B8162301202B6038BD002038BD1623A2
:100920004FF0FF302B6038BD1F2921D838B5436CFC
:1009300005460C4683B153F8242003EB84034AB1E7
:10094000511C10D0012A0CD0002520461D60904774
:10095000284638BD012038BDFFF788FF28B96B6CE9
:10096000E9E7032038BD022038BD4FF0FF3038BD25
:100970004FF0FF30704700BF024B01461868FFF789
:10098000A9BF00BF000C0020024B0A4601461868B0
:10099000FFF786BF000C0020034B1868436C0BB1B7
:1009A0000020704762E700BF000C0020024B0146A8
:1009B0001868FFF7B9BF00BF000C002070B50D46E6
:1009C0000023074C06461146284623600BF086FF9D
:1009D000431C00D070BD2368002BFBD0336070BD7A
:1009E000AC2F00200BF082BF20F0030110F00300B9
:1009F000C0F1000051F8043B00F1040C4FEACC0CAC
:100A00006FF000021CBF22FA0CF213434FF0010CEE
:100A10004CEA0C2C4CEA0C4CA3EB0C0222EA03022D
:100A200012EACC1204BF51F8043B0430F4D0C2F1F6
:100A3000000102EA0102B2FA82F2C2F11F0200EBE7
:100A4000D200704700B50A4C0546206885B01C46A8
:100A5000C06852B1074BCDE9013200912B462246C6
:100A6000054900F023F8FFF743FD044B1A46F2E76F
:100A7000000C002054F1000864F1000860F1000847
:100A800008B513460022FFF7DDFF00BF0CB410B518
:100A900082B004AC54F8042B2346019400F024F9EE
:100AA00002B0BDE8104002B0704700BF0EB430B5D0
:100AB00082B005AC54F8042B054D01462346286846
:100AC000019400F011F902B0BDE8304003B0704766
:100AD000000C0020024B0146186800F05FB800BF10
:100AE000000C0020024B0146186800F003B800BF5C
:100AF000000C002000293AD038B551F8043C0C1FF6
:100B0000002BB8BFE418054601F042FA224B1A68E0
:100B10002AB1A2420DD921686018824221D06260B8
:100B200028461C60BDE8384001F038BAA34203D81B
:100B30001A465368002BF9D111685018A04217D0FB
:100B400022D821686018834203BFD3E90003091843
:100B5000C4E90013636054602846BDE8384001F0E2
:100B60001DBAD2E900020144C4E90012D8E7704777
:100B700020680144501883421160EDD1D3E900038D
:100B80000144C2E90013E7E70C2328462B60BDE8C7
:100B9000384001F003BA00BF68110020F8B5CD1C41
:100BA00025F0030508350C2D38BF0C25002D064611
:100BB00033DBA94231D82A4F01F0EAF93A6852B141
:100BC00013685B1B04D43FE023685B1B29D52246D6
:100BD0005468002CF8D1796800293BD0294630466A
:100BE0000BF058FE431C28D0C41C24F00304A04280
:100BF00005D0211A30460BF04DFE01301DD0256086
:100C0000304601F0CBF904F10B0020F00700231D62
:100C1000C21A01D01B1AA350F8BD0C22002032606A
:100C2000F8BD0B2B05D8A242636811D05360E7E7EB
:100C3000144623601C442560E2E70C2330463360F1
:100C400001F0ACF90020F8BD0B2BF1D81446536825
:100C50003B60D5E730460BF01DFE7860BEE700BF75
:100C6000681100209368013B002B93600FDA10B4E9
:100C70009469A34208DB0A2906D01368581C106047
:100C80001970084610BC704710BC00F09FBB136879
:100C9000581C106019700846704700BF9BB1F8B52A
:100CA00013440F4606465D1E541E01E0AC4208D0B8
:100CB0003A4614F8011F3046FFF7D4FF431CF5D124
:100CC000F8BD0020F8BD0020704700BF936810B544
:100CD000144613B95360184610BD00F09BFE002364
:100CE000C4E9013310BD00BF2DE9F04F9FB08B4622
:100CF00090461C46039018B18369002B00F0C88011
:100D0000AE4B9B4500F0CA80AD4B9B4500F0CA80BE
:100D1000AC4B9B4504BF039BD3F80CB0DBF86430AD
:100D2000BBF80C20DB0702D4970540F1578116076A
:100D300040F12B81DBF81030002B00F026810020E1
:100D40002021302298F80030012705940B908DF86F
:100D500031109D4E8DF83220002B00F08880252B1D
:100D600000F01181454603E0252B00F09F802546C9
:100D70006B786C1C002BF7D1B4EB080A77D0424695
:100D8000534659460398FFF789FF01306FD00B9BFC
:100D90006A7853440B93002A69D000234FF0FF3246
:100DA00001340693CDE908338DF85B301C9307922C
:100DB00006E02C46069B801B07FA00F018430690BD
:100DC0002546052215F8011B3046FFF799FBAA4678
:100DD0000028EED1069BD80644BF20228DF85B2068
:100DE000190748BF2B22217848BF8DF85B202A299C
:100DF00061D1059A1168043200290592C0F29880E9
:100E000009916178A51C2E296ED0704C03222046D2
:100E1000FFF776FB002800F081804022069B001B34
:100E200002FA00F00343069305F101082B7806222D
:100E3000194667488DF83030FFF762FB00287DD0F7
:100E4000644B002B6DD005AB00935A46624B06A94C
:100E50000398AFF300808146B9F1FF3F07D00B9BA9
:100E60004B440B9398F80030002B7FF478AFDBF8FD
:100E7000643013F0010FBBF80C3002D19A0540F139
:100E8000B4805B0600F194800B981FB0BDE8F08F32
:100E900000F0A8FC494B9B457FF436AF039BD3F889
:100EA00004B03BE7039BD3F808B037E7B4EB080A7C
:100EB0003FF473AF63E7A1F13002092A88BFA2466D
:100EC000A1D8099B01E02C460135297803EB830367
:100ED00002EB4303A1F13002092AAA46F3D92E29D5
:100EE00004F10205099390D19AF801102A292FD113
:100EF000059B0AF102001A680433002A0792059341
:100F00009AF802100AF1030538DB304C82460322BE
:100F10002046FFF7F5FA00287FF47FAFA846554634
:100F200084E7059B073323F007030833059396E70F
:100F3000494243F002030991069362E705AB00932F
:100F40005A46254B06A9039800F0F6F8814683E738
:100F50000023A1F13002092A079301D92BE055465D
:100F6000697803EB830302EB4303A1F13002092A02
:100F700005F1010AF3D90235079346E74FF0FF3335
:100F80008246079341E7444607E75946039800F035
:100F90007DFA00283FF4D3AEDBF86430DD0707D4D8
:100FA000BBF80C309C0503D4DBF8580000F010FFB0
:100FB0004FF0FF3069E7AA46013526E758E30008FD
:100FC00038E3000818E3000894F100089CF10008D9
:100FD000A0F10008000000009D0C0008DBF858009C
:100FE00000F0EEFEBBF80C20A1E6DBF8580000F0A4
:100FF000EFFEBBF80C3044E710B4044C13460A462D
:101000000146206810BCFFF76FBE00BF000C002037
:101010002DE9F0470C460969A56891468D42B8BF95
:101020000D46156094F8431006461F46DDF82080F3
:1010300011B16A1CC9F80020236899065CD5D9F85B
:1010400000200232C9F80020236813F0060F194669
:101050001DD1E1688A1A002AD8BF194617DD00257C
:1010600004F1190A05E0E368D9F800209B1AAB42A5
:101070000CDD0123524639463046C047013005F1A8
:101080000105F0D14FF0FF30BDE8F087216894F8FA
:101090004330003318BF01238A060AD53021E218F5
:1010A00082F8431094F845105A1C224482F84310E9
:1010B000023304F1430239463046C0470130E1D0E3
:1010C0002368A26803F00603042B21691DD08A421D
:1010D00026DD4FF00009521A914400251A3401E030
:1010E0004D451DDA0123224639463046C0470130BE
:1010F00005F10105F4D1C5E713F0060F13D094F8FC
:101100004330003318BF0123D3E7D9F80000E36868
:101110008A42A3EB000323EAE379DCDC002BDCDC6E
:101120000020BDE8F087E168D9F800208A1A002A7B
:10113000D8BF194693DCAAE72DE9F0430C46097E97
:1011400085B06E2906461746984604F1430C0C9864
:101150006DD039D9732900F0F48044D9752900F095
:101160000281782940F00F8178232268DFF854E269
:1011700084F845300168150651F8043B016040F1E0
:10118000A180D10744BF42F020022260002B00F072
:1011900093801022002184F8431060680028A0602A
:1011A000C0F2C680216821F004012160002B40F0CC
:1011B000A280002840F0BE806546082A00F0AB807F
:1011C000ACEB0503236141E0632900F0E3801AD80A
:1011D000002938D0582940F0D68084F8451022687C
:1011E000DFF8E4E1C6E76F2900F0BD80702940F028
:1011F000CA8078232268DFF8CCE142F02002226026
:1012000084F84530B6E7642902D0692940F0BB80F4
:1012100022680368110603F1040557D519680560B3
:101220000B46002959DB0A22DFF89CE1B5E7036889
:1012300022681D1D6169056015061B6802D45006F1
:1012400000F1BB801960002365462361CDF8008062
:101250003B4603AA21463046FFF7DAFE013020D094
:101260002A46236939463046C047013019D02268E2
:1012700003989207E36819D51A1A002A16DD00258B
:1012800004F1190904E0E36803981A1AAA420DDD73
:1012900001234A4639463046C047013005F1010571
:1012A000F1D14FF0FF3005B0BDE8F0839842B8BFF0
:1012B000184605B0BDE8F0832168102221F0200116
:1012C000216067E7500648BF9BB25AE75106A5D593
:1012D000B3F9003005601946A3E72D2061685B4231
:1012E000002984F84300A16002DB22F0040222609E
:1012F0000A22DFF8D4E0654600E00B46B3FBF2F1CA
:1013000002FB11301EF80000934205F8010DF4D2E3
:10131000082A7FF455AF2368DB077FF551AF626879
:1013200023699A423FF74CAF3023013D2B7047E7CA
:10133000002BE0D19EF8003004F1420584F84230E1
:101340003BE703686268191D01601D68002128469B
:10135000FFF7D6F8002832D0401B606020610023E0
:1013600084F8433072E72268036812F0800F03F1BB
:1013700004051AD01B6805606F290CBF08220A22D9
:10138000DFF844E006E7012384F84210236104F10A
:101390004205E4E70122036804F14205191D1B68B8
:1013A000016084F842302261D9E712F0400F0DBF8E
:1013B0001B6805601B880560DEE7198043E76068ED
:1013C000CCE700BFBCF10008A8F10008F8B50D4655
:1013D0001446064608B1836943B3254B9C422AD084
:1013E000244B9C4229D0244B9C4208BFF468A2693C
:1013F000A389A2601A0722D5236903B32268616911
:10140000D31AEDB299422F4629DD0133A168501C51
:101410000139A1602060157062699A4216D0A389D3
:10142000DB0701D50A2D11D03846F8BD00F0DAF9F6
:101430000F4B9C42D4D17468D9E7B468D7E72146F2
:10144000304600F023F838B92369D7E72146304603
:1014500000F032F90028E7D04FF0FF37E4E72146EB
:10146000304600F029F90028F6D101232268CDE7A3
:1014700058E3000838E3000818E30008024B0A4666
:1014800001461868FFF7A2BF000C00203B4B70B567
:101490001D6806460C460DB1AB69DBB1384B9C426A
:1014A0001ED0384B9C424AD0374B9C4208BFEC6858
:1014B000B4F90C2093B2190718D5206908B313F0BA
:1014C00001022CD000226369A2605B42A36160B379
:1014D000002070BD284600F085F9294B9C42E0D1E0
:1014E0006C68B4F90C2093B21907E6D4DD063CD53C
:1014F000580726D4206942F00803A3819BB2002834
:10150000DDD103F42072B2F5007FD8D030462146F9
:1015100000F08EFCA389206913F00102D2D1990753
:1015200058BF6269A2600028D2D1B4F90C301A0603
:10153000CFD543F04003A3814FF0FF3070BDAC68BE
:10154000B6E7616B51B104F14403994204D03046CF
:10155000FFF7D0FAB4F90C2000236363002320695D
:1015600022F02402C4E90003C5E7092342F0400247
:1015700033604FF0FF30A28170BD00BF000C00202F
:1015800058E3000838E3000818E300082DE9F041AB
:101590008F890C463A07804641D44B68002B59DDB1
:1015A000E66A002E53D0002317F48052D8F800507A
:1015B000216AC8F8003051D101234046B047431C8E
:1015C0005FD0A789E66A216A7F0705D56268636BE9
:1015D000801A0BB1236CC01A024600234046B04764
:1015E000461C45D1D8F80030B4F90C20002B55D05A
:1015F0001D2B01D0162B5AD100222369C4E90032D9
:10160000616BC8F8005011B304F14403994202D051
:101610004046FFF76FFA00206063BDE8F0810E6975
:10162000AEB10D680E60B90714BF00236369AD1B2E
:10163000A3600AE02B463246A76A216A4046B847B3
:101640000028A5EB000506440ADD002DF2DC002091
:10165000BDE8F0810B6C002BA2DCF8E7606DB3E70E
:10166000A3894FF0FF3043F04003A381BDE8F08130
:10167000002322696360A3892260DA04C0D5606513
:10168000BEE7D8F80030002B9BD01D2B0CD0162BBA
:101690000AD0A38943F04003A381D9E72169C4E9B3
:1016A0000013D304ACD5EAE7C8F80050CFE742F006
:1016B0004002A281CCE700BF38B50B691BB30C46D2
:1016C000054608B183691BB3184B9C421ED0184BCA
:1016D0009C4220D0174B9C4208BFEC68B4F90C30F8
:1016E0008BB1626ED00701D4990516D528462146E4
:1016F000FFF74CFF636E0546DA0702D4A3899B050A
:101700000FD5284638BD0025284638BD6C68E5E76A
:1017100000F068F8D8E7AC68E0E7A06D00F050FB97
:10172000E4E7A06D00F054FBEBE700BF58E30008CE
:1017300038E3000818E3000820B1054B014618689B
:10174000FFF7BABF034B0449186800F007BB00BF9E
:10175000000C002014E30008B9160008014900F04D
:10176000FDBA00BFB916000808B5436EDA0702D407
:1017700083899B0501D5002008BD806D00F020FB0A
:10178000002008BD08B5436EDA0702D483899B05A3
:1017900001D5002008BD806D00F01AFB002008BDB7
:1017A00070B568254A1E05FB02F50E4605F1740169
:1017B000FFF7F4F9044640B100210C30666005F1F2
:1017C00068022160A060FEF787FF204670BD00BF61
:1017D000024B0349186800F0C1BA00BF14E30008C7
:1017E000B91600082DE9F84F05463A4800F0E8FA26
:1017F000AB69002B69D1384AC5E9123312682B65F1
:10180000AA4208BF0123354908BFAB61A962284637
:1018100000F072F86860284600F06EF8A86028466C
:10182000002400F069F804236E68E86021467466BD
:10183000C6E90044B460C6E90444B461F36006F14B
:101840005C000822FEF748FFDFF89CB0AF68DFF8C5
:101850009CA0DFF89C90DFF89C80214BC6E9086BC8
:10186000C6E90AA9C6F830802146FB607C66C7E954
:101870000044BC60C7E90444BC6107F15C00082275
:10188000FEF72AFFEE68174BC7E9087BC7E90AA9EC
:10189000C7F830802146F3607466C6E90044B4603E
:1018A000C6E90444B46106F15C000822FEF714FFA7
:1018B0000123C6E9086BC6E90AA9C6F830800548C5
:1018C000AB61BDE8F84F00F083BA0248BDE8F84FBD
:1018D00000F07EBABC2F002014E300085D1700085A
:1018E0000900010012000200F51F00081D20000879
:1018F0005D2000087D20000870B50646244800F0F1
:101900005FFA244B1D68AB697BB34835D5E90134D8
:10191000013B05D525E0013B5A1C04F1680420D0A9
:10192000B4F90C20002AF6D100251B4B04F1580015
:10193000E360656600F03CFA154800F049FA25605E
:10194000C4E90155C4E90455A5612946082204F1FA
:101950005C00FEF7C1FEC4E90D55C4E912552046EE
:1019600070BD2C682CB12546D0E72846FFF73AFF1A
:10197000CBE704213046FFF713FF04462860002818
:10198000F1D1034800F024FA0C233360E7E700BFED
:10199000D02F002014E300080100FFFF014800F0F1
:1019A0000FBA00BFD02F0020014800F011BA00BFCD
:1019B000D02F0020014800F003BA00BFBC2F002048
:1019C000014800F005BA00BFBC2F002008B505484B
:1019D00000F0F6F9044B05491868BDE8084000F02E
:1019E00099B900BFD02F0020000C00206917000813
:1019F00008B5054B0549186800F08CF9BDE80840AA
:101A0000034800F0E5B900BF000C0020851700086E
:101A1000D02F00209368002B00F0FC802DE9F04FC0
:101A2000B1F90C300C469BB2190783B08246904640
:101A30002BD522694AB313F00202D8F8006033D0E4
:101A400000273D46D4F828B0216ADFF8C492C5B11A
:101A50004D452B463A4628BF4B465046D8470028AE
:101A600040F3CE80D8F8083007441B1A2D1AC8F866
:101A70000830002B00F0B380D4F828B0216A002D84
:101A8000E6D1D6E900750836E1E721465046FFF772
:101A9000FDFC002840F03781B4F90C30D8F8006024
:101AA0009BB213F00202CBD113F0010940F0B480D5
:101AB0004D46A7682068002D55D09A0540F1C0809A
:101AC000AF42BB4600F2EE8013F4906F2FD0D4E902
:101AD000041707EB4707A0EB010B07EBD777681C50
:101AE0007F105844B8423A4684BF07463A465B05E1
:101AF00040F1F08011465046FFF750F8002800F002
:101B0000FC805A4621690190FEF770FDA289019B75
:101B100022F4906242F08002A281A7EB0B0203EB59
:101B20000B006761AB462F4623612060A2605A46D6
:101B3000494600F0C7F92368A2685B44AB4600251C
:101B4000D71BA7602360D8F80870D944A7EB0B0710
:101B5000C8F80870002F42D0B4F90C30A7689BB2C7
:101B60002068002DA9D1D6E900950836A3E70BF12E
:101B7000080353F8047C9B4653F8086C0833002F85
:101B8000F7D03A460A213046FEF7BAFC002854D076
:101B90000130A0EB06094B4620682169BB4228BFF3
:101BA0003B468842626903D9A5681544AB421ADCFA
:101BB0009A4200F381801346A56A3246216A504654
:101BC000A847051E1CDDB9EB05096ED00120D8F829
:101BD00008302E445B1B7F1BC8F8083013BB002065
:101BE00003B0BDE8F08F31462A4600F06BF9236858
:101BF00021462B4423605046FFF75EFD0028E2D0CB
:101C0000B4F90C304FF0FF3043F04003A38103B030
:101C1000BDE8F08F002070473346914610461746C6
:101C20004E469B46002FA2D00028B4D13A460A2146
:101C30003046FEF765FC0028AAD17B1C9946ABE72D
:101C40002369834217D36269AA4214D82F4BA76A2B
:101C50009D4294BF2B466FF0004393FBF2F3216A41
:101C600002FB03F350464A46B847B0F1000BC7DD0C
:101C7000A5EB0B0567E7AF4228BF2F4649463A461A
:101C800000F020F9A3682268DB1B3A44BB46A3603E
:101C90002260002BECD121465046FFF70DFD0028B5
:101CA000E6D0ADE72F46AB4641E721465046FFF769
:101CB00003FD00288BD0A3E71A4631461D46019349
:101CC00000F000F9A1682268019BC91A1344A160C1
:101CD000236078E7504600F067F9034600287FF458
:101CE0001CAF21695046FEF705FF0C22B4F90C30F9
:101CF000CAF8002023F0800384E70C22B4F90C30EA
:101D0000CAF800207EE74FF0FF3069E7FEFFFF7F53
:101D100000FCFF7F2DE9F04110F148071AD08846FA
:101D20000026D7E90154013D0ED4A389013D012BC2
:101D300006D9B4F90E30013302D02046C04706431D
:101D40006B1C04F16804F0D13F68002FE9D13046E4
:101D5000BDE8F0813E463046BDE8F0812DE9F8430C
:101D600010F148061ED0884607464FF00009D6E914
:101D70000154013D10D4A389013D012B08D9B4F9C8
:101D80000E30013304D021463846C04749EA0009E5
:101D90006B1C04F16804EED13668002EE7D148468A
:101DA000BDE8F883B1464846BDE8F883704700BFF8
:101DB000704700BF704700BF704700BF704700BF4B
:101DC000704700BF0120704701207047704700BF77
:101DD000704700BF70B50C46B1F90E1096B00029DF
:101DE00016461D4613DB6A460AF061FD00280EDB2D
:101DF000019A4FF4806302F47042A2F50052B2FAE5
:101E000082F2002052092A60336016B070BD0022B1
:101E1000A3892A601B0604D540230020336016B036
:101E200070BD4FF480630020336016B070BD00BFFA
:101E30008A890B46920706D5012103F147025961B1
:101E40001A601A61704770B582B001AB6A460C46E1
:101E50000646FFF7BFFF009905463046FEF79EFE97
:101E6000B4F90C3070B1164A0099B262019A43F08D
:101E70008003A3812060C4E904018AB92B43A381B4
:101E800002B070BD9A05FBD4012123F0030304F1D5
:101E9000470243F00203A381616122602261EFE700
:101EA0003046B4F90E100AF00EFD10B9B4F90C303A
:101EB000E4E7A38923F0030343F001031BB2DDE74A
:101EC0005D1700088842F0B40DD98B1883420AD9F7
:101ED000841832B1224613F8014D994202F8014D9F
:101EE000F9D1F0BC70470F2A0ED80346541E002AC1
:101EF000F7D001340C44013B11F8012BA14203F847
:101F0000012FF9D1F0BC704740EA01039B073AD199
:101F1000A2F110073F0901F1200606EB071601F1B7
:101F2000100300F1100453F8105C103344F8105CF7
:101F300053F81C5C103444F81C5C53F8185C44F8EB
:101F4000185C53F8145CB34244F8145CEBD17B1C6E
:101F50001B0112F00C0F194402F00F05034415D0B9
:101F60000E46043DAD0803EB850C1C1F56F8047BA0
:101F700044F8047F6445F9D10135AD002B44294470
:101F800002F00302B2E7541E0346B2E72A46ADE769
:101F90000148FFF715BF00BFC02F00200148FFF721
:101FA00017BF00BFC02F002009B3F8B51446CAB14F
:101FB00006460D4600F066F8A04202D32F4638468A
:101FC000F8BD21463046FEF7E9FD07460028F6D069
:101FD00022462946FEF70AFB30462946FEF78AFDCF
:101FE0003846F8BD2746FEF785FD3846F8BD114650
:101FF000FEF7D4BD10B50C46B1F90E100AF03FFC47
:10200000002803DB636D0344636510BDA38923F4DB
:102010008053A38110BD00BF002070472DE9F0411F
:10202000B1F90C409846E3050D461746B1F90E107C
:10203000064609D424F48054AC8143463A463046DF
:10204000BDE8F0410AF022BC022300220AF01CFC89
:10205000B5F90C40B5F90E10ECE700BF10B50C4611
:10206000B1F90E100AF010FCA389421C0EBF23F434
:10207000805343F480536065A38110BDB1F90E1005
:102080000AF006BC51F8043C181F002BBCBF0B58CB
:10209000C01870470E4A0023114610B5147C8442C4
:1020A0000FD11C225343CA18906848B1CB58FF285F
:1020B00018BF43434FF0010018BF5B00013353606A
:1020C00010BD0133072B02F11C02E7D10020F7E716
:1020D000E00E0020F0B50A4D00242E462F7C8742EA
:1020E00007D11C2000FB0464012061762276A376D0
:1020F000F0BD0134072C05F11C05EFD10020F7E7F6
:10210000E00E0020094A30B500231446157C8542B4
:1021100004D11C2201205343E15030BD0133072B71
:1021200002F11C02F2D10020F7E700BFE00E002010
:10213000094A30B500231446157C854205D11C227E
:10214000012002FB0343996030BD0133072B02F1EC
:102150001C02F1D10020F7E7E00E0020094A30B55B
:1021600000231446157C854205D11C22012002FB68
:102170000343596030BD0133072B02F11C02F1D13A
:102180000020F7E7E00E002070B50B4C0023254639
:10219000267C864209D11C204343E818E9500023DD
:1021A0008260C3604374012070BD0133072B04F1CA
:1021B0001C04EDD10020F7E7E00E0020012070475D
:1021C000F8B500252E46334C6368002B5ED0E068DE
:1021D00058BB637CB3FA83F35B09637408F00AFBB2
:1021E000D4E900239342E06035D266606674E6600D
:1021F00063699BB1207C984780B1A368FF2B0DD108
:10220000677E217EA37E47EA01021A4306D0207C26
:10221000FF2823D11A46384606F0A4F90135072DC8
:1022200004F11C04D0D10120F8BD08F029FB23687B
:102230009842CED26368002BDAD02046FFF7BEFF6B
:102240000028EBD0637C207CABB1FF280DD1A27EAF
:10225000217E607EE0E79B1A6360EBE76A28DDD8A9
:102260000A46394605F026FDD8E76A28D6D8A37E67
:10227000227E617EF6E7FF2803D11A4619461846EA
:10228000CAE76A28CAD81A461946EBE76374E360BE
:10229000C4E700BFE00E002007B503788DF80030DA
:1022A00043788DF8013083788DF8023003798DF80A
:1022B0000330C37868468DF804300BF045FF03B057
:1022C0005DF804FB08B5074B5A78022A07D858680E
:1022D00008F0D6FAC72894BF0020012008BD0020CE
:1022E000FCE700BF9C0C0020704708B5002280214D
:1022F0004FF080400AF06BFCFFF7F6FF00BF00BF15
:1023000000BF00BF00BF00BF00BF00BF00BF00BFD5
:1023100000BF00BF00BF00BF00BF00BF00BF00BFC5
:1023200008BD08B501F03CF808BD000008B5064C32
:10233000002120780BF056FB2078FFF7F2FF0520F4
:1023400009F005FBF4E700BFE82A002010B5084CAF
:10235000236803F07142074B1343236008F04AFAE5
:10236000054B18602068BDE8104003F0D5BB00BFE6
:10237000E82A00200001010E7411002008B5012296
:1023800020214FF080400AF022FC4FF080432022B1
:102390009A61BDE8084001F0F1B8012070470000E3
:1023A000124B10B51C789CB9114B1B78042B0FD124
:1023B00003F08EFA03F0A2FA03F056FA03F0E6FAFD
:1023C000204608F09DF82046BDE8104008F0B4B85B
:1023D0000BF0BEFE48B10BF0FBFA0028FBD1BDE8C4
:1023E000104044F6206009F0B2BA10BDE82A00207F
:1023F000582F002038B500230D460B70074C30B124
:1024000008F0F8F9002320602B70002038BD206808
:1024100008F036FA3228F3D8F7E700BF841100201D
:10242000084B9A78012A07D0022A09D0064B18686F
:10243000B0FA80F04009704758780128F6D170470B
:102440000120FCE79C0C0020E812002008B5054B99
:102450009B78013B012B02D9FFF7E2FF08BD012069
:10246000FCE700BF9C0C002008B508F0C3F9014B45
:10247000986008BD9C0C00202DE9F0410C461546E3
:102480000746002838D0B1FA81F35B09A3B14D4E5D
:102490004FF080423378002C32D02021012B916103
:1024A0000AD030460AF072FB304609F054FF464825
:1024B000464B836007F0FAFFA74201D0FFF770FF99
:1024C000434E3378A34200D11DB10022414B9A61A3
:1024D0001A77347024B1631E042B747098BFB470E3
:1024E000306803F019FB3378062B64D8DFE803F07B
:1024F0006119303A444E58000B1C18BF0123C5E740
:102500004FF40011042B9161D6D0334BDFF8B88023
:102510001C70324B3046C8F8083008F033FD404696
:10252000C8E7312045B10BF0DDFD52200BF0DAFD9C
:1025300001200BF0E3FD51200BF0D4FDFFF794FFD9
:102540002A462146384601F007FD0120BDE8F0810A
:102550003220002DF0D00BF0C5FD52200BF0C2FD53
:102560000220E6E73320002DE6D00BF0BBFD522021
:102570000BF0B8FD0320DCE73420002DDCD00BF09D
:10258000B1FD52200BF0AEFD0420D2E73520002D26
:10259000D2D00BF0A7FD52200BF0A4FD0520C8E718
:1025A0003020002DC8D00BF09DFD52200BF09AFD7D
:1025B000C1E71120C0E711200BF094FDFFF7C6FE24
:1025C000BCE700BF582F00204811002099220008C6
:1025D000E82A0020640C0020301F002089B0000889
:1025E000002313B50DF107018DF80730FFF702FF47
:1025F000044690B19DF80730013B032B0DD8DFE86E
:1026000003F002060F1200221146094B02E00022DD
:10261000074B99781878FFF72FFF204602B010BDBE
:1026200000220621F1E7024B00225978F2E700BFB1
:10263000E82A002013B5124C20460BF06DF9012357
:10264000637703F066FA0F4C206008B9FFF77EFE4F
:10265000E37843F00103E37008F0CCF80A4BFF2263
:10266000186000234FF4A87100930848084B09F044
:102670003BF9FFF73AFE0120FFF7B2FF02B010BDB1
:10268000640C0020E82A002074110020881100202A
:102690002D23000838B5114C05462378207063704F
:1026A00008F0A8F8032D606016D10120FFF798FF0D
:1026B00040B90B4A537812785AB102461946184667
:1026C000FFF7DAFEFFF7D0FEBDE8384053200BF0ED
:1026D00009BD11461846F3E738BD00BF9C0C002029
:1026E000E82A0020014B1878704700BF9C0C00209E
:1026F000014B9870704700BF9C0C0020014B9878EC
:10270000704700BF9C0C0020014BD870704700BF81
:102710009C0C00200122014B1A7070478011002090
:10272000F8B5164B9C681CB9FFF79EFE0020F8BD5B
:10273000134D144E2A7892B100232B704FF0804332
:102740001B69F278DB0963F30002F27032680E4B0A
:102750001340B3F1807FE9D000F048FEE7E7F3785B
:102760000A4AC3F3420352F82370002FDED02046FA
:1027700008F086F8B842DFD2D8E700BF9C0C0020F2
:1027800080110020E82A0020FF000001B4E30008C7
:102790000C4B10B55A781946012A03D0022A08D0EA
:1027A000002005E09C78012C03D100F089FE204632
:1027B00010BD486808F064F8C728F1D9FFF730FE6B
:1027C000F6E700BF9C0C002008B5074BDB780BB187
:1027D000022B04D10220FFF75DFF002008BD03207B
:1027E000FFF758FF0120F9E79C0C002038B5094D90
:1027F0000024E878032807D1FFF74CFF2046AC708F
:1028000000F004FE012038BD0220FFF743FF204600
:10281000F9E700BF9C0C002038B5094D0024E8788A
:10282000032807D1FFF736FF2046AC7000F00EFEFC
:10283000012038BD0220FFF72DFF2046F9E700BF39
:102840009C0C002070B5784C784D2068A0B108F041
:1028500017F8B0F5FA6F0FD30026552026600BF05D
:1028600041FC57200BF03EFC287832460146B0FA76
:1028700080F04009FFF700FE2B781BB16C4BDA7F2C
:102880006C4B1A702368ABB96B4C206807F0F8FFEB
:1028900040F6B73398420DD92B785BB10BF098F81E
:1028A00040B9634B5B7F2BB107F0A4FF206053203E
:1028B0000BF018FC4FF080431B69EA78DB095F4C92
:1028C00063F300020020EA70FFF78AFE2378032BEF
:1028D0001ED8DFE803F0021E4C91E36833B198473D
:1028E00020B10120FFF7D6FE0023A370236933B186
:1028F000984720B10120FFF7CDFE0223A370636942
:1029000033B1984720B10120FFF7C4FE0123A37023
:1029100070BDA369002BFBD098470028F8D001F0C8
:102920005FFC474C207000BB04F006FC00F0010087
:10293000207006F017F90021424A2B7813703C4AA8
:1029400051776BB9404C2378012B09D04FF080436D
:10295000202220469A610AF019F9204609F0FBFC72
:102960000220BDE87040FFF795BE0120DEE7E36975
:10297000002BCDD098470028CAD04FF48022334B8B
:102980009A61A37813B3022B0BD86378022B08D07B
:10299000FFF706FD11200BF0A5FB0BF019F800283E
:1029A000FBD100F015FD0023E370264B2A781B783D
:1029B0009A4202D1A07800F077FAA378012B18D0C0
:1029C000A3B1022BA4D1FFF711FFA1E7184B5B7E47
:1029D000002BE6D111200BF085FB0AF0F9FF00284F
:1029E000FBD147F2305008F0B2FFDAE7FFF7ECFE18
:1029F0008EE7FFF711FF8BE7236A002B88D09847FB
:102A0000002885D001220A4B5A770D4B1B7823B141
:102A100004220E4B9A6106F08BF800F0CDFCFFF714
:102A200023FD00209DE700BF74110020E82A00204C
:102A3000640C0020301F00207C1100209C0C002022
:102A40007011002078110020582F0020000C004049
:102A50000120704708B5FFF7FBFF08BD70B50446BD
:102A60000D46FFF701FD29462046FFF7F3FF60B151
:102A7000064B1A784AB1064B69791B782046BDE8A7
:102A80007040C3F300130BF04DBA70BDE82A00206C
:102A9000382B002008B5074806F0CAFE064806F0A5
:102AA000C7FE0AF091FF06F0C3FEBDE808400348E8
:102AB00006F0BEBED4E30008EFE3000816E4000809
:102AC00038B52A4D04462A784AB1002301210BF07B
:102AD00029FA28780121BDE838400AF083BF002890
:102AE00042D0031FDBB2A02B11D8214B014618683E
:102AF00007F05CFD20B1204602F0AEFE02F046FF7A
:102B0000204602F0A1FEBDE8384002F03FBF00F1D0
:102B10002003DBB2072B07D800F007040120A040F8
:102B2000C0B202F0C5FEEEE700F15B03DBB2022BA0
:102B300005D8104AD05CBDE8384007F0E1BC00F190
:102B40005803DBB21A2B06D80B4A32F81300BDE843
:102B5000384007F0F1BC3334E4B2122C04D8BDE89D
:102B60003840012102F00FB838BD00BFE82A00202C
:102B7000E00F002078E300087CE3000838B5224D20
:102B800004462A784AB1002319460BF0CBF928787D
:102B90000121BDE838400AF025BF98B3031FDBB21E
:102BA000A02B05D802F058FEBDE8384002F0EEBE7A
:102BB00000F12003DBB2072B07D800F00704012047
:102BC000A040C0B202F07CFEEEE700F15B03DBB296
:102BD000022B04D8BDE83840104607F091BC00F144
:102BE0005803DBB21A2B04D8BDE83840104607F072
:102BF000A3BC3334E4B2122C04D8BDE838401146EB
:102C000001F0C1BF38BD00BFE82A0020F8B5054675
:102C100090B10D4E327882B10127284601F040FF75
:102C20000446E03000233278012180B207FA04F430
:102C30000BF078F9A543F0D1F8BD02F039FEBDE8FC
:102C4000F84002F0A3BE00BFE82A0020F8B5054610
:102C500090B10D4E327882B10127284601F020FF55
:102C600000230446E0303278194680B207FA04F4B3
:102C70000BF058F9A543F0D1F8BD02F021FEBDE8F4
:102C8000F84002F083BE00BFE82A0020F8B50646EF
:102C9000B0B10F4D2B78A3B10127304601F000FFF2
:102CA0000446E03000232A78012180B20BF03AF983
:102CB00007FA04F4012128780AF094FEA643ECD127
:102CC000F8BD02F00BFEBDE8F84002F05FBE00BFA9
:102CD000E82A0020F8B50646B0B10F4D2B78A3B115
:102CE0000127304601F0DCFE00230446E03019469F
:102CF0002A7880B20BF016F907FA04F4012128783B
:102D00000AF070FEA643ECD1F8BD02F0EFFDBDE87D
:102D1000F84002F03BBE00BFE82A002038B51B4B4C
:102D20001B7863B91A4C1B4D2378052B04D14FF047
:102D300080431B691A0603D407F05CFD286038BD88
:102D400028680028F8D007F09BFD41F658339842D8
:102D5000F5D907F04FFD286025462378052B03D0D1
:102D6000BDE8384002F012BE07F00FFDB4F84C3059
:102D70009B07F2D507F0F0FC0028EED0284609F0BA
:102D800079FB284601F0D4F9E7E700BFE82A0020E4
:102D9000582F0020D8120020704700001A4B70B541
:102DA0009C6C0F2644F4C0649C649B6C012301F06E
:102DB00003048B4021F0030101F1804101F5A05192
:102DC0008D68A400C0F38320A04006FA04F425EA2D
:102DD000040528438860D8430C4912F0010F8C6821
:102DE00014BF1C4304408C6012F0020FCA6814BF69
:102DF0001A430240CA60054A536111680B431360CD
:102E000053680340536070BD000C0140001800403F
:102E10000F281FD8DFE800F0080C0F12151818183B
:102E200018181B1B1B1B1B1B0621084609F061BD44
:102E300006210720FAE706210820F7E706210920E6
:102E4000F4E706210A20F1E706211020EEE706212B
:102E50002120EBE7704701207047000008B5FFF71D
:102E6000FAFFE8B1012207214FF08040FFF796FFFB
:102E70000720FFF7CDFFFFF741FC88B903220921A6
:102E80000848FFF78BFF0920FFF7C2FF0548032220
:102E90000821FFF783FFBDE808400820FFF7B8BF0F
:102EA00008BD00BF000400402DE9F843064630236A
:102EB00083F31188FFF7D2FF00254FF00108684F18
:102EC00057F8040B002E40F0B280441C0DD020F0C7
:102ED0000F0900F00F0008FA00F4214605224846C9
:102EE000240409F074FEC9F8184001350F2DE7D10C
:102EF000062401275B4D55F8040B002E40F0A480FA
:102F0000421C27D000F00F01202207FA01F120F027
:102F10000F0009F05CFE00BF00BF00BF00BF00BF94
:102F200000BF00BF00BF00BF00BF00BF00BF00BFA9
:102F300000BF00BF00BF00BF00BF55F8040C032254
:102F400000F00F08414620F00F00FFF727FF404632
:102F5000FFF75EFF013CCED184F3118872B60120E9
:102F6000414A136823F001031360404B404A5A6101
:102F70000022A30003F1604303F56143D3F800117D
:102F8000D5B2012D94BF002101F0010109B1C3F8B0
:102F900080010132202AF1D10134082CE8D1354CCE
:102FA000636843F000736360334B1A6802F00902F0
:102FB0001A601A6842F46C3242F004021A6040F25D
:102FC000B3321A622D4B43F001039847236943F053
:102FD0000403236130BF2A4B43F001039847236960
:102FE000214A23F0040323611368264C43F00103B4
:102FF0001360E36943F08003E361A36C43F400735F
:10300000A36408F073F803F04FF9A36C43F4804312
:10301000A364A36CA36C43F48053A364A36CFFF775
:10302000BBFE002383F3118862B6BDE8F883411C20
:103030003FF45BAF00F00F01202208FA01F120F00D
:103040000F0009F0C4FD50E7431C83D000F00F01CE
:10305000402207FA01F120F00F0009F0B8FD79E7EE
:1030600074E400080CE5000810E000E000180040DF
:10307000FFFF070000ED00E000000140E4E400086D
:10308000B0E40008000C01400120704701207047A7
:10309000012303FA01F2024210B50C460CD00729B5
:1030A0000CBF03201846FFF72FFB2046FFF7ECFF6D
:1030B00010B12046FFF7EAFF10BD000008B50D4B28
:1030C0005A69D20707D51A68002122F001021A6056
:1030D0000120FFF7DDFF4022074BC3F88020BFF33C
:1030E0004F8FBFF36F8F0122024B5A61BDE808403A
:1030F00008F0D6BC0018004000E100E008B50D4B18
:10310000586910F0020006D01A68012122F002026C
:103110001A60FFF7BDFF8022074BC3F88020BFF382
:103120004F8FBFF36F8F0222024B5A61BDE80840F8
:1031300008F0B6BC0018004000E100E008B50E4BF6
:10314000586910F0040006D01A68022122F0040227
:103150001A60FFF79DFF4FF48072084BC3F8802080
:10316000BFF34F8FBFF36F8F0422034B5A61BDE84B
:10317000084008F095BC00BF0018004000E100E0E6
:1031800008B50E4B586910F0080006D01A680321E4
:1031900022F008021A60FFF77BFF4FF40072084B21
:1031A000C3F88020BFF34F8FBFF36F8F0822034B0C
:1031B0005A61BDE8084008F073BC00BF0018004029
:1031C00000E100E008B50E4B586910F0100006D081
:1031D0001A68042122F010021A60FFF759FF4FF419
:1031E0008062084BC3F88020BFF34F8FBFF36F8F0F
:1031F0001022034B5A61BDE8084008F051BC00BFE3
:103200000018004000E100E038B5254B5C69A206DB
:1032100004F4787507D51A68052122F020021A6097
:103220002846FFF735FF600608D51D4A06211368BA
:10323000284623F040031360FFF72AFF210608D534
:10324000174A07211368284623F080031360FFF70D
:103250001FFFE20508D5124A08211368284623F407
:1032600080731360FFF714FFA30508D50C4A0921EA
:103270001368284623F400731360FFF709FF4FF427
:103280008032084BC3F88020BFF34F8FBFF36F8F9E
:103290004FF47872024B5A61BDE8384008F000BC28
:1032A0000018004000E100E038B52A4B5C69620577
:1032B00004F47C4507D51A680A2122F480621A605A
:1032C0002846FFF7E5FE230508D5224A0B2113689F
:1032D000284623F400631360FFF7DAFEE00408D504
:1032E0001C4A0C211368284623F480531360FFF70F
:1032F000CFFEA10408D5174A0D211368284623F4F0
:1033000000531360FFF7C4FE620408D5114A0E2172
:103310001368284623F480431360FFF7B9FE2304A3
:1033200008D50C4A0F211368284623F40043136084
:10333000FFF7AEFE0222084BC3F88420BFF34F8F85
:10334000BFF36F8F4FF47C42024B5A61BDE83840A7
:1033500008F0A6BB0018004000E100E00120704723
:1033600010B5074C23784BB9FFF7F8FF01F0B6FB17
:1033700007F0A2F801F0B3FB01232370012010BD78
:10338000DD1200200120704710B5044C23781BB1DA
:10339000FFF7F8FF00232370012010BDDD1200208D
:1033A000024B1B780BB10AF067BE7047E012002099
:1033B000012070470120704708B5044B1B780BB9FA
:1033C000FFF7CEFFFFF7F4FF08BD00BFDD120020BE
:1033D00008B5044B1B780BB1FFF7D6FFFFF7EAFFE8
:1033E00008BD00BFDD1200200120704708B5FFF7BF
:1033F000FBFF08BD014B1878704700BFDE120020AC
:10340000014B1870704700BFDE120020014B18708E
:10341000704700BFDE120020014B1878704700BFD4
:10342000DF120020084B10B50446187058B9FFF79A
:1034300059F9022807D80320FFF72CF92046BDE8E8
:103440001040FFF755B910BDDF120020FFF7EABFAB
:10345000024B187880F00100FFF7E4BFDF12002074
:10346000084B1A78084B1B784BB982F00102A0F583
:10347000A443203B1F2B8CBF104601207047002225
:10348000F5E700BFDF120020DE12002000231946FE
:10349000094A937213609375D36082F82230936166
:1034A00082F82E305362054A01330B2B917242F899
:1034B0000C1BF9D1704700BFB00F0020C00C0020DA
:1034C00008B502F063FFFFF7E1FF0022014B1A602D
:1034D00008BD00BFE812002001EB4102014601488F
:1034E000FDF784B8EC2A0020104B70B41B78104D07
:1034F00013F0010369780F4806D02B7870BC03EBFA
:1035000043031844FFF7E8BFAA78EE7802EB4204C1
:103510000444964204F10304EFD9013204F8023C5A
:1035200004F8033C04F8013CD2B2F2E7582B002027
:10353000EB0F0020EC2A002038B500F051FE48B90E
:103540000446002320461A461946013404F0B2FB13
:10355000532CF6D15325074CA3782278617828465E
:10356000013504F0A7FB6B2D04F10304F4D1012015
:1035700038BD00BFEC2A00200120704710B5FFF7CE
:10358000EFFEFFF757F800F04FFEE0B10E4C0122BE
:103590002046042109F01BFB0423A4F58064C4F831
:1035A000183401224FF40061204609F010FB4FF45B
:1035B00000630122A3614FF48061204609F007FBFC
:1035C0004FF48063A36110BD000C004000230D4A3E
:1035D00010B513700C4A0D4C13700D4A136003F0B4
:1035E000ABFD68B900F0FCFD50B905F0CBFA4FF423
:1035F0008023A36100F02CFEBDE8104002F029BB3F
:103600000423F6E7DC120020E1120020000C004049
:10361000E412002008B502F0E1FA04F019FB02F010
:1036200071FA0C4B188060F07F001870188802F057
:103630006CFA0022084B1A7003F09CFF03F040FD67
:1036400003F080FF00F0DEFD18B1BDE80840FFF791
:10365000BDBF08BD382B00200E1C002037B5044626
:103660000D4600F09FFE002800F0BD80002D00F008
:10367000BA8047F604639C4200F0858029D847F65B
:1036800001639C425BD00AD847F603439C4200F09A
:10369000A780B4F5FC4F3CD0284603B030BD47F6B8
:1036A00002639C425DD047F603639C42F4D1002341
:1036B0000DF1070101208DF80730FEF79BFE9DF804
:1036C0000730042B02D013F0FD0FE5D101220421B5
:1036D00030E047F612639C427BD00BD847F6056377
:1036E0009C4263D047F611639C42D5D10020FFF77E
:1036F00099FED1E747F613639C426ED047F64363C9
:103700009C42C9D10122394B1A700022384B1A60F1
:10371000C2E700230DF1070101208DF80730FEF705
:1037200069FE9DF80730042B02D013F0FD0FB3D1D2
:10373000012211462F4B1878FEF79EFEACE70023BE
:103740000DF1070101208DF80730FEF753FE9DF8BB
:103750000730042B02D013F0FD0F9DD1012202216E
:10376000E8E700230DF1070101208DF80730FEF78F
:1037700041FE9DF80730042B02D013F0FD0F8BD1D2
:1037800001220321D6E700230DF1070101208DF866
:103790000730FEF72FFE9DF80730042B03D013F0FF
:1037A000FD0F7FF479AF01220521C3E700230DF15E
:1037B000070101208DF80730FEF71CFE9DF8073049
:1037C000DA1E012A02D9002B7FF466AF01220621FE
:1037D000B0E70122084B1A705EE7FFF739FE5BE79E
:1037E000FFF718FF58E7054656E700BFE112002033
:1037F000E4120020E82A0020DF12002070B5FFF755
:1038000021F800250126164C206858B1A37A4BB93F
:1038100007F036F86368984204D3A6720121208924
:10382000FFF71CFF0135042D04F10C04ECD1002539
:1038300001260C4C206858B1A37A4BB907F020F848
:103840006368984204D3A67201212089FFF706FF1E
:1038500001350B2D04F10C04ECD100F011FD70BD0D
:10386000B00F0020C00C002008B5064B1B780BB928
:10387000FFF776FD0422044B9A61BDE8084006F08C
:103880006ABF00BFDD120020000C004008B5064BE7
:103890001B780BB1FFF778FD4FF48022034B9A6140
:1038A000BDE8084006F056BFDD120020000C0040C5
:1038B0002DE9F7430D46AF4A497904461368D1B163
:1038C000032B00D801331360FEF7CEFDAA4B00276F
:1038D00098461A89944226D195F805900C26B9F19C
:1038E000000F0CD006F086FF7E4348F80600A34B7D
:1038F0000027984635E0002BE5D0013BE3E77E4307
:1039000008EB0607BB7A13B948F80630EFE74946DB
:103910002046FFF7A3FE87F80A9048F80690002893
:10392000E5D10024F9E00137042F03F10C03D0D1D5
:10393000DDE77E4308EB0607BB7A13B948F806308B
:103940001DE049462046FFF789FE87F80A9048F8AF
:1039500006900028E5D012E001370B2F03F10C038D
:103960000DD01A899442F7D195F805900C26B9F13B
:10397000000FDED006F03EFF7E4348F806002946E1
:103980002046FFF76DFD0028CBD02946204600F0E9
:1039900021FD0028C5D047F609639C4200F0A681AE
:1039A0006BD847F603639C4200F02A8124D8B4F513
:1039B000FC4F00F0C08009D847F620039C4200F07D
:1039C000708147F603439C42ABD009E047F60163A0
:1039D0009C4200F0DD8047F602639C4200F0F480D8
:1039E0002946204600F066FF00289AD02046294646
:1039F000FFF734F8044690E047F606639C4200F077
:103A0000378123D847F604639C4200F0158147F6BE
:103A100005639C42E4D16B79002B82D0584C22780C
:103A2000062A3FF47EAF00230DF1070101208DF837
:103A30000730FEF7DFFC9DF80730DA1E012A02D9B5
:103A4000002B7FF46EAF002206218FE047F607635C
:103A50009C426DD047F608639C42C1D16B790BB193
:103A600003F07AFD03F068FB002800F02E8105F0DA
:103A700071F80422434B9A6153E747F60F639C4267
:103A800000F0508125D847F60C639C4200F03C8141
:103A90000FD847F60A639C4200F02F8147F60B636C
:103AA0009C429DD16B79002B3FF43BAF03F098FC17
:103AB00037E747F60D639C4200F02D8147F60E6311
:103AC0009C428DD16B79002B3FF42BAF03F04CFC63
:103AD00027E747F641639C4218D010D847F6106399
:103AE0009C4200F0268147F640639C427FF478AF09
:103AF0006B79002B3FF415AFFEF7CCFF11E747F6CB
:103B000042639C420DD047F643635CE76C791E4BE1
:103B100014B101221A7004E71C70204603B0BDE8FE
:103B2000F0836B79002B3FF4FCAEFEF7F3FDF8E673
:103B30006A79164BEEE76B79002B3FF4F2AE104C2E
:103B40002278012A3FF4EDAE00230DF10701012098
:103B50008DF80730FEF74EFC9DF80730042B03D09C
:103B600013F0FD0F7FF4DDAE002201212078FEF777
:103B700083FCD6E6E8120020B00F0020C00C002025
:103B8000E82A0020000C0040E0120020DC12002097
:103B90006B79002B3FF4C5AE694C2278022A3FF4C2
:103BA000C0AE00230DF1070101208DF80730FEF7AC
:103BB00021FC9DF80730042B03D013F0FD0F7FF498
:103BC000B0AE00220221D1E76B79002B3FF4A9AE01
:103BD0005B4C2278032A3FF4A4AE00230DF10701C9
:103BE00001208DF80730FEF705FC9DF80730042B07
:103BF00003D013F0FD0F7FF494AE00220321B5E74C
:103C00006B79002B3FF48DAE4D4C2278042A3FF4A3
:103C100088AE00230DF1070101208DF80730FEF773
:103C2000E9FB9DF80730042B03D013F0FD0F7FF460
:103C300078AE0022042199E76B79002B3FF471AE36
:103C40003F4C2278052A3FF46CAE00230DF10701AA
:103C500001208DF80730FEF7CDFB9DF80730042BCF
:103C600003D013F0FD0F7FF45CAE002205217DE749
:103C70006B79002B3FF455AE314C2278002A3FF48B
:103C800050AE00230DF1070101208DF80730FEF73B
:103C9000B1FB9DF80730012B3FF643AE00221146E1
:103CA00064E76C79002C7FF43CAE00F099FA80F068
:103CB0000100C0B200F09CFA00F092FA28B104F0C2
:103CC00049FF04221F4B9A6127E703F035FA0028C9
:103CD0007FF427AE00F084FA044600287FF421AE7A
:103CE00004F050FF174B4FF48022ECE76B79002B68
:103CF0003FF417AE03F00CFC13E66B79002B3FF496
:103D000010AE03F011FC0CE66B79002B3FF409AE0A
:103D100003F07AFB05E66B79002B3FF402AE03F06B
:103D200011FBFEE56B79002B3FF4FBAD03F030FB9C
:103D3000F7E56B79002B3FF4F4AD03F03DFBF0E5C4
:103D4000E82A0020000C004001207047F8B5054625
:103D50000C465A4E5A4F21462846FFF7F5FF50B100
:103D6000062C08D8DFE804F00408609696A3A300A8
:103D70000022524B1A60F8BD326892BBA5F12003B5
:103D8000042B0BD8DFE803F003161B2025000023CB
:103D9000FF211A462020FEF79DF901224FF4FA7107
:103DA0002846FEF7F1F92846FEF774F906F022FDE1
:103DB0003060E0E70022FF2311462120EBE7FF22DD
:103DC000002311462220E6E70023FF221946232084
:103DD000E1E7002324201A461946FEF77BF9FF226B
:103DE000DCE7104606F04CFD47F22F53984203D90A
:103DF0000524344B1C70AEE7334B1B7883B9242D5C
:103E00000ED1324B1B78042B3FD103232D4C284677
:103E10002370FF231A461946FEF75CF924789AE7C7
:103E20007A7E8AB30324E4E73068F8B9A5F1200369
:103E3000032BA0D8DFE803F0020B10150023FF21AD
:103E40001A462020FEF746F90122C821A8E70022E1
:103E5000FF2311462120F5E7FF22002311462220EF
:103E6000F0E70023FF2219462320EBE706F008FDC8
:103E700047F22F53984201D90624BAE77B7E0BB153
:103E80000424B6E7104B1B786BB12846BDE8F84018
:103E9000FEF700B9FF224FF4FA612846FEF774F9E5
:103EA0002846FEF7F7F80022064B1A7063E7002257
:103EB000044B1A70FEF72EFCE7E700BFF01200205B
:103EC000640C0020EC120020E82A0020582F00206B
:103ED00008B5034B1978FFF739FF012008BD00BF73
:103EE000EC1200200120704770B506460D462020D8
:103EF0000021FEF733F910B90024204670BD0021DF
:103F00002120FEF72BF90028F6D000212220FEF711
:103F100025F90028F0D000212320FEF71FF9002802
:103F2000EAD000212420FEF719F90028E4D0294620
:103F30003046FFF7D7FF04460028DDD00022044BAF
:103F400029461D70034B30461A60FFF7FFFED4E789
:103F5000EC120020F012002070B50D461446FEF75A
:103F60001CFA064680B155B3174B5B7E2BBB013D57
:103F7000052D09D8DFE805F0030C120808182CB14C
:103F800002212020FFF7B0FF304670BD0121F8E785
:103F900014B102212120F5E70121FBE714B1022130
:103FA0002220EFE70121FBE714B102212320E9E7FA
:103FB0000121FBE702212420E4E71E46E4E7002C70
:103FC000F8D10121F7E700BF640C0020094B1B78F2
:103FD0007BB9094B1A7832B1084A527E4AB95978EE
:103FE0001046FEF749BA064B1B78042B01D0114648
:103FF000F6E77047EC120020E82A0020640C00204D
:10400000582F0020704700002DE9FF473F4E05461E
:104010000F46FFF7F7FFFFF7D9FF3478002C32D0B7
:104020003B4D2B6813B906F0E5FB2860286806F0C5
:1040300027FC40F6B733984205D933780133337003
:1040400006F0D8FB28603378013B032B17D8DFE854
:1040500003F0020C0E12C8221146C82004F082FAA6
:104060000024204604B0BDE8F0870022F4E70022D7
:10407000C8211046F2E70021C8220846EEE70024D6
:1040800034702C60EDE7234B1B78BBB939462846CA
:10409000FFF752FA0028E3D039462846FFF76CFABA
:1040A0000028DDD03946284600F020FB04460028D1
:1040B000D6D039462846FEF783F8D2E7DFF858A075
:1040C000DFF858900DF104080A2651463246404662
:1040D000FCF78CFA99F81E30E2B2B3FBF6F6964282
:1040E00014F808000ED91D2B4FF0000302D9FF224F
:1040F000194601E01A46FF21013403F0DBFD0A2CCA
:10410000E2D1C3E700231A46F2E700BFE112002024
:10411000E4120020DC12002000E20008640C002001
:10412000012804BF014B187006F0ECBA44110020BE
:10413000014807F00CBC00BFA0860100522838B52A
:10414000044618D1234B244DDB78AA7F13F00103DA
:1041500019D0632A11D90023204A1946136052202E
:104160001A46FDF7B7FFFF22C8215220FEF70CF8D0
:104170005220FDF78FFF012038BD0023174A194652
:104180001360FF22EDE70A2AE5D81A46FF21FDF762
:10419000A1FF4FF4FA712046FDF7B4FF012120463C
:1041A000FDF7C6FFAB7F012BE2D80C4C236813B997
:1041B00006F020FB206020680028D9D006F060FBC4
:1041C00042F210739842D3D9002301202360FFF7F5
:1041D00017F9CDE7E82A0020640C0020F412002033
:1041E000024B1878C0F3C000704700BF342B00208A
:1041F000034B1A7860F3C3021A70186801F093BC7D
:10420000342B002008B5FF20FDF744FF012008BD36
:10421000044A137823F07F0343F0090313701068F6
:1042200001F081BC342B002010B5074C2022204621
:10423000402108F0CCFC20462022802108F0C7FC59
:104240000120024B187010BD00040040FB1200203A
:1042500008B50023074A1370074A137001F060FC89
:10426000064B186008B9FFF7D3FF5220FDF712FF85
:10427000012008BDFA120020F8120020342B002083
:1042800038B505F011FB08B101F0D6FC3A4B1B78AC
:1042900003F07003702B21D1384C206806F0F0FA3F
:1042A000B0F5FA6F1AD306F0A5FA2060344C354DFC
:1042B0002378062B97BF344A6878D05C334A8CBF8A
:1042C000A978D15C07220133B3FBF2F2C2EBC20240
:1042D0009B1A2370EA78002302F0AEFF2C4B2D4C82
:1042E000186910F040000BD11B691D0608D52A4D36
:1042F00020602A78012A01D000F033FB01232B70C3
:10430000234A136913F080030CD11269500609D5B2
:10431000214D23602A78022A02D0022000F021FBDE
:1043200002232B7000221D4B1A70194A11690906CD
:104330000DD5126952060AD50122174D1A702A7836
:10434000032A02D006F056FA206003232B7020685F
:1043500078B106F095FAB0F5967F0AD30025104B98
:104360002A46294618782560FEF786F8284600F088
:10437000F8FA012038BD00BF342B002000130020C4
:10438000F9120020582B0020D0E60008D7E60008DC
:104390000004004004130020F8120020FA1200204C
:1043A000E82A002008B547F6166398420ED1084A5D
:1043B000137883F00401C1F3800161F38203137069
:1043C000106801F0B0FBFF20FDF764FE012008BD7E
:1043D000342B002047F62002904270B500F0A480F4
:1043E00048D8512800F06C8119D8162800F0408177
:1043F00007D8042800F03481072800F04181012407
:1044000090E04F2800F0648100F252811A28F6D122
:104410009F4B1B789A07F2D54C7952200EE0B0F5ED
:10442000A97F7BD010D8522800F03A81E428E6D149
:10443000974B1B785807E2D565204C79002C00F08B
:104440004F81FEF73DFB13E040F62C02904265D011
:1044500047F20B02904200F0E18040F616029042D3
:10446000CDD140F616004C79002C59D000F0EEF971
:10447000002457E047F60762904200F0E88022D817
:1044800047F6270290426ED00DD847F6250290429B
:104490007FD047F626029042B1D14B79002BAED1A6
:1044A00004F0EAFB0DE047F6290290424CD064D3B9
:1044B00047F62A029042A2D14B79002B9FD104F0FB
:1044C00063FC403860E047F61462904200F0AB8035
:1044D00015D847F60962904265D047F60B629042C4
:1044E0008DD14C79F4B102F047FEC82858D1012390
:1044F000002268488178407802F09EFEB8E747F6CF
:1045000016629042B4D054D347F6186290427FF4BA
:1045100076AF4C7934B103F01FF8A9E74C79A3E7E3
:1045200000F0AAF9204670BD4C79002CFAD0584A08
:10453000137883F00801C1F3C00161F3C303137062
:10454000106801F0F0FA93E74B79002B7FF457AF36
:1045500004F01AFC403080B2FE283FF650AFFF2036
:10456000FDF798FD4BE74B79002B7FF448AF04F043
:1045700089FB323080B2C728EFE74B79002B7FF4FC
:104580003EAF04F07FFB323800B200287FF737AF30
:10459000E5E74B79002B7FF432AF04F06DFBD9E7F0
:1045A00002F01EFF64E74C79002CBBD002F0AAFF9A
:1045B0005EE74C79002CB5D0354A364E1178C1F300
:1045C0000213013303F0070363F30611013B11707B
:1045D000062B21D8DFE803F0040E1114171A1D0072
:1045E000FF245525106801F09EFA0123F278214638
:1045F000284681E7FF24AA25F4E7FF241525F1E7E3
:10460000FF24BF25EEE7FF242B25EBE70024002540
:10461000E8E77578B478E5E7FF24F8E74B79002BF5
:104620007FF4EDAE9BE74C79002C3FF47BAF184A4A
:10463000137883F00201C1F3400161F34103137069
:10464000106801F070FAFF20FDF724FD10E7124B0F
:104650001B7803B14B79114A03F00103137007E78C
:104660000B4B1B789B077FF5CAAE4C795020E5E6D3
:10467000074B1B789E077FF5C2AE4C795120DDE6D3
:10468000034B1B789D077FF5BAAE4C794F20D5E6DA
:10469000342B0020582B0020E82A0020DC120020B8
:1046A000114B1B789C077FF5AAAE4C791A20C5E602
:1046B0000D4B1B7898077FF5A2AE4C790420BDE620
:1046C000094B1B789A077FF59AAE4C791620B5E610
:1046D000054B1B789B077FF592AE4C790720ADE622
:1046E000FEF74CFA1EE700BF342B002013B505F08F
:1046F000EBFE820705D577232C201A46194603F0D6
:10470000D9FA1B4B1B78DB060BD51A4B187800F037
:10471000C7F9022805D0772349201A46194603F025
:10472000C9FA154B154C1A7822B100221A7006F0FE
:1047300061F82060206810B9012002B010BD06F0B9
:104740009FF840F6B8339842F6D80024ADF80440FC
:1047500004F098FA8DF80600019802F08DFAC0F383
:104760000742C1B2C0F3072003F0FCFE2046E4E795
:10477000382B00200E130020FB120020FC1200201A
:1047800003280DD805290BD80E2A09D85A23C1EBC6
:10479000011103FB0010034B104433F81000704765
:1047A00001207047F6E60008032808D839B9054B00
:1047B00082F0010202EB400233F812007047012040
:1047C000704700BFE6E60008012070470C22024B4C
:1047D00002FB0030704700BFA40F0020A0F58073DB
:1047E000B3F5F85F10B526D210F4805F00F40074C2
:1047F00000F4807300F4806100F400620DD0002B9F
:104800000CBF002010200CB140F0200009B140F096
:1048100040000AB140F0800010BD181C18BF0120F4
:104820000CB140F0020009B140F00400002AF3D0BE
:1048300040F00800F0E70020EEE710B50C46FFF767
:10484000CDFF2346BDE8104018470000A0F1E0036B
:10485000072B10B5044600D940B920460449FFF79C
:10486000ECFFE0B2BDE81040FEF72AB90149F6E7D7
:104870000D2C00088D2C000810B50446C0B2FEF7C0
:104880007DF9A4F1E003072B00D92CB90349204698
:10489000BDE81040FFF7D1BF0149F8E74D2C0008F3
:1048A000D52C00080120704708B5FFF7FBFF08BDB5
:1048B0000120704701207047704708B5FFF7FCFFE3
:1048C00008BD000013B502AB03E903000F4B1B78D2
:1048D000B3B99DF80530009873B16AB100F0BCFC23
:1048E00004460146009800F077FC2046009902B08B
:1048F000BDE8104001F042BB00F08EFC0446F4E736
:10490000009800F0A9FC0099F1E700BF0D1300200A
:104910000346008910B40A4638B95C88188899881B
:1049200040EA044010BCFFF7CDBF10BC704738B55B
:1049300001210446FFF7ECFF21460546FFF7B4FFCF
:1049400018B12146284605F0C1F900F0010038BD34
:1049500010B504460021FFF7DBFF2146FFF7ADFF4E
:1049600010BD10B501248440E4B2204601F0C6F821
:104970002046BDE8104000F090BB704708B500F03D
:1049800031FBFFF7FAFFBDE8084046F2A81006F039
:10499000DEBF08B5FFF7F2FFBDE8084005F088BFAD
:1049A00008B5FFF7EBFFBDE8084005F0A9BF38B533
:1049B00001210546FFF7ACFF2946044604F0C6FB7B
:1049C00008B9002038BD29462046FEF771FF0028AF
:1049D000F7D02946204605F0CDFC0028F1D0294625
:1049E000204604F0BBFD0028EBD02946204605F008
:1049F0003FFC0028E5D02946204604F0E5FA0028CF
:104A0000DFD02946204605F003FD0028D9D06B7978
:104A10005BB147F603439C421DD00AD8B4F5F84F6A
:104A200016D047F601439C4217D02846FFF740FFB7
:104A3000C8E747F65B439C4215D047F65C439C426F
:104A40000ED047F65A439C42EFD101F033F8ECE721
:104A5000FFF79FFFB5E701F033F8FFF7A1FFB0E7DD
:104A600001F01CF8E1E701F028F8DEE708B5FEF7F1
:104A70000DFF03F03FFF00F03AF802F0CBFCBDE879
:104A80000840012004F01EB808B500F035F802F027
:104A9000B3FD002004F016F8BDE80840FEF7E4BEC0
:104AA00003091CBF1846042382081EBF10460233A8
:104AB000DBB242081CBF0133DBB2184670477047B7
:104AC00001207047704738B50546FFF7F9FF0446E7
:104AD00010B12846FFF7F6FF204638BD704710B5E5
:104AE0000446FFF7ECFF2046FFF7EDFF10BD08B5C9
:104AF0000020FFF7F4FF08BD08B505F0DDFCFFF767
:104B0000EEFF08BD10B505F0D7FC074B04461A7838
:104B1000824207D0187005F06DFE044B18602046E5
:104B2000FFF7DDFF10BD00BF0C13002008130020AD
:104B300010B586B06C4684E803009DF805300BB1D3
:104B400000F0DCFE0023ADF81230ADF8143094E82C
:104B5000030011F0FF0F0390ADF8101003AC05D166
:104B600094E8070000F00CFE06B010BD2046FFF7E9
:104B7000DEFE0028F4D1F7E70379012B02D100888B
:104B800000F08CBB7047704738B505460C46FDF702
:104B900097FF1CB92846FDF7F1FF38BD6420013CA2
:104BA00006F0D5FEA4B2F4E708B539280CBF5021B1
:104BB0003221FFF7E9FF08BD2DE9F04786798146EC
:104BC0000C46457900F064FE3609804600B3A846DD
:104BD000F5B1C4F3072303F0F002402A09D004F131
:104BE0002002D2B2072A25D91EB903F0E003202BF8
:104BF00023D0A94B93F8018018F0040808D00220B4
:104C000000F01CFF00F044FE80F001005FFA80F825
:104C1000C4F303330B2B3FD8DFE813F0110011006E
:104C200060006000BD003E003E003E00D3002E014B
:104C3000400140014FF00008EAE7B046E8E7C4F35E
:104C40000723C4F3032613F0F00F18BF3601E7B2B1
:104C500085B156B107F12003DBB2072B304600D9EE
:104C60002FB900F025FE00F091FE384658E000F024
:104C700035FEF8E73846FDF781FF6EB107F12003F6
:104C8000DBB2072B304600D917B900F019FE01E05E
:104C900000F02CFE00F07AFEC4F30334083C032C31
:104CA00003D805F009FCFFF71AFFB8F1000F00F078
:104CB0004D8100F0E5FD10F0010040F0478189F8DA
:104CC000050000F0D7FD00F01BFA484600F058F947
:104CD00000F0D0FDBDE8F04700F01EBAC4F3072392
:104CE00003F0F003C4F30327202B5FFA84FA18BF04
:104CF0003F01BAF1000F07D0BAF1010F32D0002DF9
:104D00003AD0CEB150460BE0634B5B785A0711D4D2
:104D10004DB127B1384600F0CBFD00F037FE002042
:104D2000FDF7CEFEB8E72846FDF728FF002FB3D0E9
:104D30003846AAE755B11EB93846FDF767FFABE71D
:104D4000012EA9D1384600F0F9FDA5E7002EA3D128
:104D50003846FDF77BFF384600F0FEFD384600F090
:104D6000D9FD99E715B1052E96D8E5E7042E93D81D
:104D70003846FDF76BFF8FE7002EF9D0BAF1390FF7
:104D80000CBF4FF4FA5041F2883006F0E0FD504677
:104D9000FDF7F4FE80E7C4F3812343B1012B7FF4D8
:104DA0007BAF65B1C4F3090005F0C6FB74E725B11C
:104DB000C4F3090005F0A4FB6EE72846FAE728468D
:104DC000F2E714F4407F27D1002D7FF465AFC4F3E0
:104DD00042108000C3B204F00F009840C2B214F039
:104DE00010001EBF0F209840C043C4F3812318BF9A
:104DF000C0B2022B40EA020008D00AD8012B02D030
:104E000000F056F948E700F04BF945E700F058F993
:104E100042E700F042F93FE7C4F30122D3B205B301
:104E200002F00103002B3FF437AFC4F342108000BF
:104E3000C3B204F00F009840C2B214F010001EBFBD
:104E40000F209840C043C4F3812318BFC0B2022B87
:104E500040EA02000AD00CD8012B04D000F07CF903
:104E60001AE75B08DEE700F06FF915E700F07CF960
:104E700012E700F033F90FE7E7B2C4F303261DB1E0
:104E8000304600F03DF957E73846FDF7DFFE304683
:104E900000F042F900E700BF382B0020E7B2A7F18D
:104EA000F003042B3DD8DFE803F003220E151E00AB
:104EB0003DB1042E3FF6F0AEC4F3042000F038F903
:104EC000EAE6052EF6E7C4F30420002DE0D100F059
:104ED00017F9E1E625B1C4F3042000F00AF9DBE696
:104EE00000F004F9D8E61A4B5B785B0704D4C4F3EE
:104EF0000420002DCCD0EAE74DB1C4F304252846A8
:104F000000F0FEF80321284600F076FDC4E60120FB
:104F100000F094FD012E7FF6BFAE022000F08EFD62
:104F2000BAE62DB1002E7FF4A0AEC4F30420CEE784
:104F30004EB1392F0CBF4FF4FA5041F2883006F0D1
:104F400006FD384624E7C4F30420A1E7BDE8F08756
:104F5000382B002038B50446008960B100F034FFDA
:104F6000054600F009F900F097F829462046BDE80B
:104F70003840FFF721BE2188607900F09BF9EFE708
:104F8000037910B50446B3B1FFF711FD68B900F01D
:104F90007FFC80B1637973B1074B5B785B070AD5FF
:104FA000BDE81040022000F049BD2046FFF7D2FFC7
:104FB0002046FFF7CDFC10BD382B002008B500209F
:104FC00005F09EFA002005F0B7FA00F097FCBDE866
:104FD000084000F0DBBC08B500F046FCBDE8084026
:104FE000FFF7ECBF08B500F073FCBDE80840FFF721
:104FF000F2BFC0F303320E3202F00F02092A10B5DD
:10500000C4B21BD8012101FA02F340F20332134269
:1050100003D113F010000DD110BDF02C10D004D826
:10502000E72C8CBF00200120F6E7F42C14BF0020F1
:105030000120F1E7E72C03D9F12CF7E70020EBE79B
:105040000846E9E708B50346007958B1188928B140
:1050500000F0BAFEBDE80840FFF7CBBF188800F0AB
:105060001DF9F7E708BD82B002AB03E9030002B007
:10507000704784B004AB03E9070004B07047704781
:1050800008B5FFF7FCFF08BD08B5FFF7F9FF014BB6
:10509000187008BD0E1300207047FFF7F5BF000021
:1050A000024B1B781843FFF7EFBF00BF0E13002021
:1050B000024B1B781840FFF7E7BF00BF0E1300201C
:1050C000024B1B785840FFF7DFBF00BF0E130020D4
:1050D000704708B5FFF7FCFF08BD000008B5FFF7F3
:1050E000F8FF014B187008BD121300200020FFF7D5
:1050F000F5BF012303FA00F0C0B2FFF7EFBF0000D5
:10510000012303FA00F0034B1B781843C0B2FFF7EA
:10511000E5BF00BF12130020012303FA00F0034B88
:105120001B7823EA0000FFF7D9BF00BF121300204D
:10513000012303FA00F0034B1B785840C0B2FFF77D
:10514000CDBF00BF12130020024B1B781843FFF79E
:10515000C5BF00BF12130020024B1B781840FFF799
:10516000BDBF00BF12130020024B1B785840FFF751
:10517000B5BF00BF12130020704701F00703C90834
:1051800030B501EB4101012401390A4400219C4062
:10519000E4B212F8015F20FA01F343F300036B401D
:1051A000234001316B4003291370F2D130BD00223E
:1051B00010B500F00704C00800EB400001441046A1
:1051C0008B5CE34003F00103934001321843032A50
:1051D000C0B2F5D110BD000082B0ADF804000B469E
:1051E000C1B2C0F3072005280AD80E290ED8C0EB9B
:1051F00000100144064A89B2184602B0FFF7BDBF4D
:105200000430C0B2012801D8024AF5E702B0704765
:10521000131300200F13002082B0ADF80400C3B2B6
:10522000C0F30720052809D80E2B0ED8C0EB0010BC
:105230001844074980B202B0FFF7B9BF0430C0B2CA
:10524000012802D803491846F5E7002002B070474C
:10525000131300200F13002073B503240D4BADF87A
:1052600004001E780C4B1B781E4346FA04F3DB0740
:10527000E5B206D414F1FF34F7D20025284602B077
:1052800070BD0199284600F098FE80B20128F1D047
:10529000F4E700BF121300200E13002007B5ADF88D
:1052A00004000198FFF7D8FF019903B05DF804EB03
:1052B00000F083BE13B5104BADF804101B782BB172
:1052C000019802B0BDE81040FFF7E8BF70B1019847
:1052D000FFF7C2FF044601460198FFF77DFF204615
:1052E000019902B0BDE8104000F067BE0198FFF7D9
:1052F00093FF0446F3E700BF0D13002010B501240F
:1053000004FA02F204FA01F11143C9B231EA0002CF
:1053100004FA03F306BF1843C0B2984310BD00005F
:1053200008B513460A46014603480078FFF7E6FF32
:10533000BDE80840FFF7D2BE12130020F8B50A27D7
:105340000D4B0E4E1C780E4D3378A34200D1F8BDA4
:1053500007FB04F2AB18A85AB3F802C09A88D988A0
:1053600040EA0C4042EA014101341A89FFF781FE0C
:1053700004F00704E8E700BF931300209213002015
:1053800042130020064B10B49A885C881888D9888C
:1053900040EA044042EA014110BC1A89FFF769BEA5
:1053A00038130020F8B51C4B9A7912F0F00F0CD18D
:1053B0005A7952B14FF00A0C184A194912780D78EF
:1053C0001E885F88174CAA4200D1F8BD0CFB02F181
:1053D000601890F804E0BEF1000F19D0615AB14294
:1053E00016D14179A1B94188C91B89B2C7290FD803
:1053F0000122997962F307119971837962F3071396
:1054000083710548FFF7BCFDBDE8F840FFF796BF84
:10541000013202F00702D6E7381300209313002070
:105420009213002042130020F0B50A270D4B0E4ABC
:105430001B7816780D4CB34202D100221046F0BD05
:1054400007FB03F5621992F801C08C4505D1655D33
:10545000854202D15279002AF0D1013303F00703CB
:10546000E9E700BF931300209213002042130020AD
:105470002DE9F04F8BB002AB0446014606221846D8
:10548000FBF7B4F8B34D0346297922796779A8462A
:10549000C1B9AAB18FB12046FFF7D4FD064660B16D
:1054A0000A2221462846FBF7A1F82846FFF764FBAD
:1054B000FFF778FFFFF766FF69E02046FFF760FD22
:1054C000012664E0B4F802A068886E79AAEB0000B7
:1054D00094F800B094F8019080B2002E00F0FB80A8
:1054E000C72800F2A380002A51D0AB792A8813F094
:1054F000F00F20885CD1904212D1298922899142F3
:105500000ED1002F4DD1012262F30713AB71FFF7CB
:1055100039FF2846FFF734FDAB79A371002636E04A
:10552000002F3ED149465846FFF77EFF5846FFF709
:105530007BFF05460028F1D18DF808B08DF8099061
:105540000298FFF7ABFEC0F303310B2912D80122FA
:105550008A4012F4406FC3B21DD112F00C0F0ED16D
:10556000910707D010F4706F00D07BB12033DBB20D
:10557000072B0BD92046FFF703FD354606E010F454
:10558000706FF3D0A27912F0F00FEFD12E463046B3
:105590000BB0BDE8F08FEF2BF8D90F33DBB2022B45
:1055A000E7E798F8063043F0010388F80630B5E7DE
:1055B00090420ED12889228990420AD14FB92046C3
:1055C000A371FFF7DDFC0A2221462846FBF70EF8FF
:1055D00070E72046FFF736FD00283FF46EAF002F3E
:1055E0003FF46BAF98F806301F2B15D9B8F80020A0
:1055F0008DF81630ADF8102098F80420B8F808306F
:105600008DF814200022ADF812A08DF81520ADF809
:10561000183004A8FFF7B4FC0A2221464D48FAF7D7
:10562000E5FFFFF7BFFEFFF7ADFE49E7A87910F0F1
:10563000F001019118D18DF80C208DF808B08DF88B
:105640000990ADF80AA08DF80D7093E80300FFF7FC
:105650000AFD2846FFF794FC0A2201992846FBF729
:105660003BF8FFF78FFE59E7002A90D02A8823885D
:105670009A420ED12A8923899A420AD14FB9A07140
:105680002046FFF77DFC0A2239462846FBF724F81E
:105690007DE72046FFF7D6FC00283FF40EAF002F31
:1056A0003FF40BAF98F806301F2BB5D9B8F800209F
:1056B0008DF82230ADF81C2098F80420B8F8083096
:1056C0008DF820200022ADF81EA08DF82120ADF825
:1056D000243007A89EE7C7283ED8002A3FF4F0AE42
:1056E0003E46002F3FF4E9AE2A8823889A4220D113
:1056F0002A8923899A421CD1AB79DA0713D413F093
:10570000F00210D0F02AA37106D0DBB2C3F303126B
:10571000013262F30713A3712046FFF731FC0A221E
:1057200021460C4852E70A2221460A48FAF75EFF52
:105730002DE72046FFF786FC00287FF46DAF98F830
:105740000630204643F0010388F80630FFF718FCC6
:105750001DE700BF381300208DF80C208DF808B02D
:105760008DF80990ADF80AA08DF80D7093E803004C
:10577000FFF779FC0A2231462846FAF7ADFF99E691
:10578000F0B589B001AC84E807002046FFF770FE51
:10579000294E0746294D70B19DF808301BB194E899
:1057A0000700FFF766FC0A24254F287833788342E8
:1057B00026D109B0F0BD05AB94E8070003C31A80F9
:1057C0009DF80830002BEED033782A785C1C04F06A
:1057D000070494420AD00A22194805A902FB0300D3
:1057E000FAF704FF3470FFF7A9FDDCE7FFF7FAFBD7
:1057F0000A223946134837702F70FAF76DFFD2E747
:1058000004FB0070FFF734FE0028D2D02A786243F0
:10581000BB18B85AB3F802C09A88D98840EA0C403D
:1058200042EA01411A89FFF724FC2B78013303F087
:1058300007032B70B9E700BF9213002093130020D9
:105840004213002038130020024B0146186804F070
:1058500015BF00BFE00F0020024B0146186804F09E
:1058600025BF00BFE00F0020014B186804F036BFD1
:10587000E00F0020014B1878C0087047D4130020B7
:10588000024B187800F00700704700BFD4130020C7
:10589000034B187810F0070018BF0120704700BFB5
:1058A000D4130020014B1878704700BFD713002095
:1058B000024A137818431070704700BFD7130020B6
:1058C000024A137823EA000010707047D7130020B3
:1058D0000022014B1A707047D7130020024A137838
:1058E00018431070704700BFD8130020024A137885
:1058F00023EA000010707047D81300200022014BEB
:105900001A707047D8130020704708B5FFF7FCFFE6
:1059100008BD000008B5054A1378034204D023EA05
:1059200000001070FFF7F1FF08BD00BFD513002085
:10593000704708B5FFF7FCFF08BD000008B5054A31
:10594000137830EA030C03D003431370FFF7F1FF21
:1059500008BD00BFD613002008B5054A13780342DE
:1059600004D023EA00001070FFF7E3FF08BD00BF7A
:10597000D613002008B5044B1A781AB1002018700D
:10598000FFF7D7FF08BD00BFD613002010B5124B9C
:1059900012491B780978124C0B4312492068097888
:1059A000037031B10B43037004F0E2FD08B1FFF75F
:1059B000E1FF246820220C492046FAF7E7FD48B1B0
:1059C000214620220848FAF711FE2046BDE8104083
:1059D00004F07EBD10BD00BFD7130020D8130020F7
:1059E000E00F0020D6130020B4130020704708B544
:1059F000FFF7FCFF08BD0000094A10B552785207B6
:105A00000AD5084C41EAC0012170FFF779FB2078E4
:105A1000C008FFF7ECFF10BDBDE81040FFF770BBFA
:105A2000382B0020D4130020002008B5024B18703A
:105A3000FFF7DDFF08BD00BFD413002008B50A4AF8
:105A4000137823EA0000107042070CD198420AD064
:105A5000064B5B785B0706D5C008FFF75DFBBDE82A
:105A60000840FFF7E1BF08BDD4130020382B002009
:105A7000094A08B55378C3F3800181420AD060F324
:105A800082035370108800F040F8BDE808400220FF
:105A9000FFF7D4BF08BD00BF382B0020044B587857
:105AA000C0F3800080F0010000F00100FFF7E0BFCC
:105AB000382B00200120FFF7DBBF0020FFF7D8BF05
:105AC00008B500F091FDBDE808404FF6FF710020D9
:105AD00000F06CBD08B5002000F001FD4FF6E66354
